{
  "contractName": "Resume",
  "abi": [
    {
      "anonymous": false,
      "inputs": [
        {
          "indexed": true,
          "internalType": "address",
          "name": "user",
          "type": "address"
        },
        {
          "indexed": false,
          "internalType": "string",
          "name": "name",
          "type": "string"
        },
        {
          "indexed": false,
          "internalType": "string",
          "name": "usn",
          "type": "string"
        },
        {
          "indexed": false,
          "internalType": "string",
          "name": "question1",
          "type": "string"
        },
        {
          "indexed": false,
          "internalType": "string",
          "name": "question2",
          "type": "string"
        }
      ],
      "name": "ResumeUploaded",
      "type": "event"
    },
    {
      "inputs": [
        {
          "internalType": "address",
          "name": "",
          "type": "address"
        }
      ],
      "name": "resumes",
      "outputs": [
        {
          "internalType": "string",
          "name": "name",
          "type": "string"
        },
        {
          "internalType": "string",
          "name": "usn",
          "type": "string"
        },
        {
          "internalType": "string",
          "name": "question1",
          "type": "string"
        },
        {
          "internalType": "string",
          "name": "question2",
          "type": "string"
        }
      ],
      "stateMutability": "view",
      "type": "function"
    },
    {
      "inputs": [
        {
          "internalType": "string",
          "name": "_name",
          "type": "string"
        },
        {
          "internalType": "string",
          "name": "_usn",
          "type": "string"
        },
        {
          "internalType": "string",
          "name": "_question1",
          "type": "string"
        },
        {
          "internalType": "string",
          "name": "_question2",
          "type": "string"
        }
      ],
      "name": "addResume",
      "outputs": [
        {
          "internalType": "bool",
          "name": "",
          "type": "bool"
        }
      ],
      "stateMutability": "nonpayable",
      "type": "function"
    },
    {
      "inputs": [
        {
          "internalType": "address",
          "name": "_user",
          "type": "address"
        }
      ],
      "name": "getResume",
      "outputs": [
        {
          "components": [
            {
              "internalType": "string",
              "name": "name",
              "type": "string"
            },
            {
              "internalType": "string",
              "name": "usn",
              "type": "string"
            },
            {
              "internalType": "string",
              "name": "question1",
              "type": "string"
            },
            {
              "internalType": "string",
              "name": "question2",
              "type": "string"
            }
          ],
          "internalType": "struct Resume.ResumeData",
          "name": "",
          "type": "tuple"
        }
      ],
      "stateMutability": "view",
      "type": "function"
    }
  ],
  "bytecode": "0x608060405234801561001057600080fd5b50610cc8806100206000396000f3fe608060405234801561001057600080fd5b50600436106100415760003560e01c8063311a5ae514610046578063677d5e6914610076578063f82dbb5a146100a6575b600080fd5b610060600480360381019061005b9190610849565b6100d9565b60405161006d9190610aaa565b60405180910390f35b610090600480360381019061008b9190610872565b610379565b60405161009d9190610a2e565b60405180910390f35b6100c060048036038101906100bb9190610849565b6104b1565b6040516100d09493929190610a49565b60405180910390f35b6100e1610701565b6000808373ffffffffffffffffffffffffffffffffffffffff1673ffffffffffffffffffffffffffffffffffffffff16815260200190815260200160002060405180608001604052908160008201805461013a90610bda565b80601f016020809104026020016040519081016040528092919081815260200182805461016690610bda565b80156101b35780601f10610188576101008083540402835291602001916101b3565b820191906000526020600020905b81548152906001019060200180831161019657829003601f168201915b505050505081526020016001820180546101cc90610bda565b80601f01602080910402602001604051908101604052809291908181526020018280546101f890610bda565b80156102455780601f1061021a57610100808354040283529160200191610245565b820191906000526020600020905b81548152906001019060200180831161022857829003601f168201915b5050505050815260200160028201805461025e90610bda565b80601f016020809104026020016040519081016040528092919081815260200182805461028a90610bda565b80156102d75780601f106102ac576101008083540402835291602001916102d7565b820191906000526020600020905b8154815290600101906020018083116102ba57829003601f168201915b505050505081526020016003820180546102f090610bda565b80601f016020809104026020016040519081016040528092919081815260200182805461031c90610bda565b80156103695780601f1061033e57610100808354040283529160200191610369565b820191906000526020600020905b81548152906001019060200180831161034c57829003601f168201915b5050505050815250509050919050565b60006040518060800160405280868152602001858152602001848152602001838152506000803373ffffffffffffffffffffffffffffffffffffffff1673ffffffffffffffffffffffffffffffffffffffff16815260200190815260200160002060008201518160000190805190602001906103f6929190610729565b506020820151816001019080519060200190610413929190610729565b506040820151816002019080519060200190610430929190610729565b50606082015181600301908051906020019061044d929190610729565b509050503373ffffffffffffffffffffffffffffffffffffffff167f2d76895fdf38b47a0e1fdd69adc791fa1587fd81e76e1184e3d94c645e34edb08686868660405161049d9493929190610a49565b60405180910390a260019050949350505050565b60006020528060005260406000206000915090508060000180546104d490610bda565b80601f016020809104026020016040519081016040528092919081815260200182805461050090610bda565b801561054d5780601f106105225761010080835404028352916020019161054d565b820191906000526020600020905b81548152906001019060200180831161053057829003601f168201915b50505050509080600101805461056290610bda565b80601f016020809104026020016040519081016040528092919081815260200182805461058e90610bda565b80156105db5780601f106105b0576101008083540402835291602001916105db565b820191906000526020600020905b8154815290600101906020018083116105be57829003601f168201915b5050505050908060020180546105f090610bda565b80601f016020809104026020016040519081016040528092919081815260200182805461061c90610bda565b80156106695780601f1061063e57610100808354040283529160200191610669565b820191906000526020600020905b81548152906001019060200180831161064c57829003601f168201915b50505050509080600301805461067e90610bda565b80601f01602080910402602001604051908101604052809291908181526020018280546106aa90610bda565b80156106f75780601f106106cc576101008083540402835291602001916106f7565b820191906000526020600020905b8154815290600101906020018083116106da57829003601f168201915b5050505050905084565b6040518060800160405280606081526020016060815260200160608152602001606081525090565b82805461073590610bda565b90600052602060002090601f016020900481019282610757576000855561079e565b82601f1061077057805160ff191683800117855561079e565b8280016001018555821561079e579182015b8281111561079d578251825591602001919060010190610782565b5b5090506107ab91906107af565b5090565b5b808211156107c85760008160009055506001016107b0565b5090565b60006107df6107da84610afd565b610acc565b9050828152602081018484840111156107f757600080fd5b610802848285610b98565b509392505050565b60008135905061081981610c7b565b92915050565b600082601f83011261083057600080fd5b81356108408482602086016107cc565b91505092915050565b60006020828403121561085b57600080fd5b60006108698482850161080a565b91505092915050565b6000806000806080858703121561088857600080fd5b600085013567ffffffffffffffff8111156108a257600080fd5b6108ae8782880161081f565b945050602085013567ffffffffffffffff8111156108cb57600080fd5b6108d78782880161081f565b935050604085013567ffffffffffffffff8111156108f457600080fd5b6109008782880161081f565b925050606085013567ffffffffffffffff81111561091d57600080fd5b6109298782880161081f565b91505092959194509250565b61093e81610b6c565b82525050565b600061094f82610b2d565b6109598185610b38565b9350610969818560208601610ba7565b61097281610c6a565b840191505092915050565b600061098882610b2d565b6109928185610b49565b93506109a2818560208601610ba7565b6109ab81610c6a565b840191505092915050565b600060808301600083015184820360008601526109d38282610944565b915050602083015184820360208601526109ed8282610944565b91505060408301518482036040860152610a078282610944565b91505060608301518482036060860152610a218282610944565b9150508091505092915050565b6000602082019050610a436000830184610935565b92915050565b60006080820190508181036000830152610a63818761097d565b90508181036020830152610a77818661097d565b90508181036040830152610a8b818561097d565b90508181036060830152610a9f818461097d565b905095945050505050565b60006020820190508181036000830152610ac481846109b6565b905092915050565b6000604051905081810181811067ffffffffffffffff82111715610af357610af2610c3b565b5b8060405250919050565b600067ffffffffffffffff821115610b1857610b17610c3b565b5b601f19601f8301169050602081019050919050565b600081519050919050565b600082825260208201905092915050565b600082825260208201905092915050565b6000610b6582610b78565b9050919050565b60008115159050919050565b600073ffffffffffffffffffffffffffffffffffffffff82169050919050565b82818337600083830152505050565b60005b83811015610bc5578082015181840152602081019050610baa565b83811115610bd4576000848401525b50505050565b60006002820490506001821680610bf257607f821691505b60208210811415610c0657610c05610c0c565b5b50919050565b7f4e487b7100000000000000000000000000000000000000000000000000000000600052602260045260246000fd5b7f4e487b7100000000000000000000000000000000000000000000000000000000600052604160045260246000fd5b6000601f19601f8301169050919050565b610c8481610b5a565b8114610c8f57600080fd5b5056fea26469706673582212201e575811d87bc6689c10c01f1a3842f37a8097c686b961ad0840ae9a8db2a04964736f6c63430008000033",
  "immutableReferences": {},
  "source": "pragma solidity ^0.8.0;\r\n\r\ncontract Resume {\r\n    struct ResumeData {\r\n        string name;\r\n        string usn;\r\n        string question1;\r\n        string question2;\r\n    }\r\n\r\n    mapping(address => ResumeData) public resumes;\r\n\r\n    event ResumeUploaded(\r\n        address indexed user,\r\n        string name,\r\n        string usn,\r\n        string question1,\r\n        string question2\r\n    );\r\n\r\n    function addResume(\r\n        string memory _name,\r\n        string memory _usn,\r\n        string memory _question1,\r\n        string memory _question2\r\n    ) public returns (bool) {\r\n        resumes[msg.sender] = ResumeData(_name, _usn, _question1, _question2);\r\n        emit ResumeUploaded(msg.sender, _name, _usn, _question1, _question2);\r\n        return true; // Indicate success\r\n    }\r\n\r\n    function getResume(address _user) public view returns (ResumeData memory) {\r\n        return resumes[_user];\r\n    }\r\n}\r\n",
  "sourcePath": "D:\\TRIAL2\\contracts\\Resume.sol",
  "compiler": {
    "name": "solc",
    "version": "0.8.0+commit.c7dfd78e.Emscripten.clang"
  },
  "schemaVersion": "3.4.16",
  "updatedAt": "2024-05-16T23:23:52.031Z",
  "devdoc": {
    "kind": "dev",
    "methods": {},
    "version": 1
  },
  "userdoc": {
    "kind": "user",
    "methods": {},
    "version": 1
  }
}